:020000040000fa
:080000000002040000000000f2
:020000040000fa
:04000800de03000013
:020000040000fa
:04000c00de0300000f
:020000040000fa
:04001000de0300000b
:020000040000fa
:04001400de03000007
:020000040000fa
:04001800de03000003
:020000040000fa
:04001c00de030000ff
:020000040000fa
:04002000de030000fb
:020000040000fa
:04002400de030000f7
:020000040000fa
:04002800de030000f3
:020000040000fa
:04002c00de030000ef
:020000040000fa
:04003000de030000eb
:020000040000fa
:040034009403000031
:020000040000fa
:04003800de030000e3
:020000040000fa
:04003c00de030000df
:020000040000fa
:04004000de030000db
:020000040000fa
:04004400de030000d7
:020000040000fa
:040048008c03000025
:020000040000fa
:04004c00de030000cf
:020000040000fa
:04005000de030000cb
:020000040000fa
:040054001e03000087
:020000040000fa
:04005800620300003f
:020000040000fa
:04005c00fa020000a4
:020000040000fa
:04006000de030000bb
:020000040000fa
:04006400de030000b7
:020000040000fa
:04006800de030000b3
:020000040000fa
:04006c00de030000af
:020000040000fa
:04007000de030000ab
:020000040000fa
:04007400de030000a7
:020000040000fa
:04007800de030000a3
:020000040000fa
:04007c00de0300009f
:020000040000fa
:04008000de0300009b
:020000040000fa
:04008400de03000097
:020000040000fa
:04008800de03000093
:020000040000fa
:04008c00de0300008f
:020000040000fa
:04009000de0300008b
:020000040000fa
:04009400b4030000b1
:020000040000fa
:04009800de03000083
:020000040000fa
:04009c00de0300007f
:020000040000fa
:0400a000de0300007b
:020000040000fa
:0400a400de03000077
:020000040000fa
:0400a800de03000073
:020000040000fa
:0400ac00de0300006f
:020000040000fa
:0400b000de0300006b
:020000040000fa
:0400b400de03000067
:020000040000fa
:0400b800de03000063
:020000040000fa
:0400bc00de0300005f
:020000040000fa
:0400c000de0300005b
:020000040000fa
:0400c400de03000057
:020000040000fa
:0400c800de03000053
:020000040000fa
:0400cc00de0300004f
:020000040000fa
:0400d000de0300004b
:020000040000fa
:0400d400de03000047
:020000040000fa
:0400d800de03000043
:020000040000fa
:0400dc00de0300003f
:020000040000fa
:0400e000de0300003b
:020000040000fa
:0400e400de03000037
:020000040000fa
:0400e800de03000033
:020000040000fa
:0400ec00de0300002f
:020000040000fa
:0400f000de0300002b
:020000040000fa
:0400f400de03000027
:020000040000fa
:0400f800de03000023
:020000040000fa
:0400fc00de0300001f
:020000040000fa
:04010000de0300001a
:020000040000fa
:04010400de03000016
:020000040000fa
:04010800de03000012
:020000040000fa
:04010c00de0300000e
:020000040000fa
:04011000de0300000a
:020000040000fa
:04011400de03000006
:020000040000fa
:04011800de03000002
:020000040000fa
:04011c00de030000fe
:020000040000fa
:04012000de030000fa
:020000040000fa
:04012400de030000f6
:020000040000fa
:04012800de030000f2
:020000040000fa
:04012c00de030000ee
:020000040000fa
:04013000de030000ea
:020000040000fa
:04013400de030000e6
:020000040000fa
:04013800de030000e2
:020000040000fa
:04013c00de030000de
:020000040000fa
:04014000de030000da
:020000040000fa
:04014400de030000d6
:020000040000fa
:04014800de030000d2
:020000040000fa
:04014c00de030000ce
:020000040000fa
:04015000de030000ca
:020000040000fa
:04015400de030000c6
:020000040000fa
:04015800de030000c2
:020000040000fa
:04015c00de030000be
:020000040000fa
:04016000de030000ba
:020000040000fa
:04016400de030000b6
:020000040000fa
:04016800de030000b2
:020000040000fa
:04016c00de030000ae
:020000040000fa
:04017000de030000aa
:020000040000fa
:04017400de030000a6
:020000040000fa
:04017800de030000a2
:020000040000fa
:04017c00de0300009e
:020000040000fa
:04018000de0300009a
:020000040000fa
:04018400de03000096
:020000040000fa
:04018800de03000092
:020000040000fa
:04018c00de0300008e
:020000040000fa
:04019000de0300008a
:020000040000fa
:04019400de03000086
:020000040000fa
:04019800de03000082
:020000040000fa
:04019c00de0300007e
:020000040000fa
:0401a000de0300007a
:020000040000fa
:0401a400de03000076
:020000040000fa
:0401a800de03000072
:020000040000fa
:0401ac00de0300006e
:020000040000fa
:0401b000de0300006a
:020000040000fa
:0401b400de03000066
:020000040000fa
:0401b800de03000062
:020000040000fa
:0401bc00de0300005e
:020000040000fa
:0401c000de0300005a
:020000040000fa
:0401c400de03000056
:020000040000fa
:0401c800de03000052
:020000040000fa
:0401cc00de0300004e
:020000040000fa
:0401d000de0300004a
:020000040000fa
:0401d400de03000046
:020000040000fa
:0401d800de03000042
:020000040000fa
:0401dc00de0300003e
:020000040000fa
:0401e000de0300003a
:020000040000fa
:0401e400de03000036
:020000040000fa
:0401e800de03000032
:020000040000fa
:0401ec00de0300002e
:020000040000fa
:0401f000de0300002a
:020000040000fa
:0401f400de03000026
:020000040000fa
:0401f800de03000022
:020000040000fa
:0401fc00de0300001e
:020000040000fa
:04020000de03000019
:020000040000fa
:04020400de03000015
:020000040000fa
:04020800de03000011
:020000040000fa
:04020c00de0300000d
:020000040000fa
:04021000de03000009
:020000040000fa
:04021400de03000005
:020000040000fa
:04021800de03000001
:020000040000fa
:04021c00de030000fd
:020000040000fa
:04022000de030000f9
:020000040000fa
:04022400de030000f5
:020000040000fa
:04022800de030000f1
:020000040000fa
:04022c00de030000ed
:020000040000fa
:04023000de030000e9
:020000040000fa
:04023400de030000e5
:020000040000fa
:04023800de030000e1
:020000040000fa
:04023c00de030000dd
:020000040000fa
:04024000de030000d9
:020000040000fa
:04024400de030000d5
:020000040000fa
:04024800de030000d1
:020000040000fa
:04024c00de030000cd
:020000040000fa
:04025000de030000c9
:020000040000fa
:04025400de030000c5
:020000040000fa
:04025800de030000c1
:020000040000fa
:04025c00de030000bd
:020000040000fa
:04026000de030000b9
:020000040000fa
:04026400de030000b5
:020000040000fa
:04026800de030000b1
:020000040000fa
:04026c00de030000ad
:020000040000fa
:04027000de030000a9
:020000040000fa
:04027400de030000a5
:020000040000fa
:04027800de030000a1
:020000040000fa
:04027c00de0300009d
:020000040000fa
:04028000de03000099
:020000040000fa
:10040000af1521000eff27000e018800000000003c
:10041000000020000000e000020032000001200087
:100420002002880014000700e60007000000e0003a
:1004300003003a0020af2100010020000200370035
:100440000000200001002000810f70000100320038
:100450000f000700000020000000e0000200320052
:100460000000020000000000460c02000000000036
:100470000040da000000fe00a00120000000e000c3
:1004800002003200002020009001880000000600d9
:10049000a1028800800478000000eb001f003700f4
:1004a000e284440054a0b4009905ba00e2844400f8
:1004b00054a0b4009906ba00e284440054a0b400e9
:1004c0000006eb00476fde00fd07b200ae018800ba
:1004d000636ce10003003a000ad801000000eb0061
:1004e0000e003700606ce10008003a00004deb00a0
:1004f0000a05e800020039003420ec000af0a000f0
:100500008b05e900f9ff3e00040037006168e10057
:10051000010032000086eb000b00070019c7ba008b
:100520000e04e0001905ba0003003a000a00e000da
:10053000dbff3a0000000600fe07b200ae028800b2
:100540008a047800f5ff37000cd0a300e20f4d00bd
:100550001c003b0089027800354dba000a05e8000e
:10056000020039003420ec000af0a0008b05e900fd
:100570000f003200254dba000a05e80002003900dc
:100580003420ec000af0a0008b05e90008003200de
:100590000c00e0000600320015cdba000a05e800a4
:1005a000020039003420ec000af0a0008b05e900bd
:1005b0008984e80054a0b4000b00e000e2ff3a0098
:1005c000000006009902ba00055d78008b05e9007d
:1005d000f7ff3200c82ade00055d78008b05e900d0
:1005e000f3ff32000c00e000f1ff320019ddba0029
:1005f000eeff3700801f78000000fa0001a8a90074
:1006000000188000808a880010188000908a880076
:1006100020188000a08a880030188000b08a8800e6
:1006200040188000c08a880010c0b30027f0b700cf
:100630000080fa004f007800004006003600f80005
:10064000809fbe00829fbe00849fbe00869fbe002a
:100650000000fa000168a900101180006400600029
:100660000000e000010032002242a90010118000c9
:10067000620060000000e000060032002222a900b3
:100680000500370030118000004078002e0b070075
:1006900001003700000000001011800061006000c0
:1006a0000000e000f7ff3a000080fa004f03be00b0
:1006b0004f02be004f01be004f00be003600f900e1
:1006c000004006003600f800809fbe00829fbe00fa
:1006d000849fbe00869fbe000000fa000188a9002a
:1006e0008180800070808000808f50000200320086
:1006f000a60a0700010037001270ef000080fa0020
:100700004f03be004f02be004f01be004f00be00af
:100710003600f900004006000000fa000108a900b8
:100720000080fa00004006003600f800809fbe00fe
:10073000829fbe00849fbe00869fbe000000fa001c
:100740000068a9006d080700ef0a07000080fa00a2
:100750004f03be004f02be004f01be004f00be005f
:100760003600f900004006003600f800809fbe0009
:10077000829fbe00849fbe00869fbe000000fa00dc
:100780000368a900b0808000c18080006100400043
:10079000e0804800b0808800c18088002405070000
:1007a0000080fa004f03be004f02be004f01be00a2
:1007b0004f00be003600f900004006000040da009d
:1007c0000000fe000000050014002000aa0337000e
:1007d000f4ff2f00a80337000001be003c00070013
:1007e0000470a70003f0a1006509b10016003200f3
:1007f0000d0035006828e10006003500f0ff2f00ed
:10080000f1ff27000300e00013003b000100280077
:100810000000050000004000818048008502e900da
:10082000fcff3a0008003700f88f420002003c004d
:100830008000eb00000005008100d1000080d300a3
:100840008502e800fcff3a000300e00002003b00e4
:1008500060001000e0801800000006000001be00eb
:100860001b0007000470a70003f0a10003f8a30019
:1008700013003a006509b10010003200090035008c
:100880006928e10002003500010028000000050091
:1008900000004000818048008502e900fcff3a002a
:1008a00000000600f88f4200050035008100d100ed
:1008b0000080d3008502e800fcff3a00000006003b
:1008c0008000eb00000005006011b80085033700d0
:1008d000c70ade00f107b200f50fb20008003200cf
:1008e000e1cf4200020032000170a00024000500a8
:1008f000810f70000100320004080500440005006b
:10090000810f700002003a00140005008502e90022
:100910000000400081c04800fcff3b000170a000c7
:100920002400050007f82700078361000638e1006e
:1009300004003a00f70720008783610087037100f5
:1009400001003a0003f0a200889fbe008a9fbe000b
:100950008c9fbe00470ade000480a100c71ade009b
:100960000580a100070028000785600087856100d9
:10097000f70f20000720e1009e0032000728e10069
:100980009c003200010678000400e000b400320050
:10099000f7072000878060000170a0000500e000dc
:1009a000c0003200f7072000878161000370a000bb
:1009b000050652000f003a000b50e1000b00320018
:1009c0000308e10002003a000200e1007e0032006c
:1009d0000204500083845800040031000001fd002f
:1009e0008101fd008402fd008a05fd006044b8001d
:1009f000210037000520e10005003d000001fd0059
:100a00008101fd008402fd008a05fd0005065200fb
:100a10007a60e100050035000170a1004722dd0089
:100a2000848070008a807000630037006044b800e2
:100a3000ef02660007ff2f00070666000500e000d2
:100a400006003400f08312008714dd000511de007b
:100a5000071bdd00060171008519de007060e100f2
:100a6000050035000904780082047800030178004d
:100a70008001eb00700656000b50e10003003a00c5
:100a80000200400083804800040037006004140026
:100a9000e0841c0002005800838058000188a300f5
:100aa000060032008100d1000080d3008984d30089
:100ab0000884d3000402e800270037000178a3006f
:100ac00025003a000100e000030032008186cf00db
:100ad000698656000a0037008c0020000000e00004
:100ae00004003a0009007800880478000004eb0054
:100af000700252008086cf000d0646000c06e90009
:100b00007060e10006003500800078000900780080
:100b1000880478000004eb00700656007002520052
:100b20000c00e0000c0034008c08dd00f00316001f
:100b30000703de00868070000c00dd00074bde003e
:100b4000060070008c4cdd000743de0086847400d4
:100b50000c44dd000c0252006120e1002000350051
:100b6000610160000700280087816400f7ff27000b
:100b700087836400070374000300e000060032006e
:100b800082037300040032000000e800e0804800a7
:100b90000188a3000e003a00f70f20000720e100b3
:100ba0004a003d000170a1004722dd008100720073
:100bb0008a8070000000be004f06be004f05be00d8
:100bc0004f04be00000006006000b800faff3700c6
:100bd0008100d1000080d3000402e800eeff37005e
:100be0000401780089017400a10107008a80700067
:100bf000f1ff3700f7010700070278000001fd0050
:100c00008101fd00f301070087027800850372006f
:100c10000778a300040032000001fd008101fd00ff
:100c200006020700e4ff3700850362000768a3009f
:100c3000080032000b50e10003003200f0ff2f00eb
:100c4000f1ff2700dcff37000001fd008101fd00fe
:100c5000d9ff37000468a300d7ff3200faff37003e
:100c6000f8ff2700888360000b003a000000e000d6
:100c700009003a008303640082837300020032009b
:100c80000200be00ccff37000b50e100ceff3a005f
:100c90000200be00c8ff370014002000810064007d
:100ca0003eff3700f8ff27008883610004003a0008
:100cb0000200e00002003a008c007800beff37001e
:100cc000150020008301640039ff370001f8270078
:100cd0000000200081007500b7ff3700889fbe002c
:100ce0008a9fbe008c9fbe001b0020000202be0037
:100cf0000586680006002800060666004709de0033
:100d0000f20fb200820032000243e800800032009d
:100d1000c729de00f30fb2007d0032000343e80074
:100d20007b003200f107b2000170a000f507b200ad
:100d30000570a000c708dd004903de008680700052
:100d40004700dd00c72add004923de0086827200ed
:100d50004722dd000305510004035000858358003d
:100d60000300310000004000818048000a05e900ce
:100d70008c1f78008a9fbe000400500085805800b8
:100d80000402420085824a00000040008180480041
:100d90000005eb000004be006033b8000406be008e
:100da0000d48e10056003100110009004dccd8007b
:100db0000c01b8000d02b8008481410060824a0035
:100dc0008283530003045c0084845c0060055d0042
:100dd0000a00e00025003a00800578000d40e1009f
:100de00049003100880078000700780011000900f0
:100df0004d88d8000c01b8000d02b8008481410074
:100e000060824a006003110083835b0004045c007d
:100e1000e0845c000900e00021003a004f01be00c0
:100e20000300e0002b003200e301600007067300be
:100e30008c81710001003200640070004200de000d
:100e40004e5edd000c007000c258de0001e0a00024
:100e500083010700cf017800818071004f06be003a
:100e60004f05be004f04be00000006008c83430007
:100e70000d044c00e0844c0060054d000000e900ca
:100e80000a00e000d4ff32008c8343000d044c00c4
:100e9000e0844c0060054d000000e900ceff370003
:100ea0000c0343008d834b0060044c00e0844c0035
:100eb0000000e9000900e000d8ff32000c03430005
:100ec0008d834b0060044c00e0844c000000e9007e
:100ed000d2ff37004200de004e5edd000c007000e5
:100ee000c258de0001e0a000cf0178000300e0005e
:100ef000daff320060001000e0801800d7ff3700f2
:100f0000f0ff2f00aaff3700f0ff2f00b9ff3700d6
:100f10000404be002f010700870678000004fd00ce
:100f20008104fd002b010700078366000678a300fb
:100f3000030032000960a7000800be002c00370043
:100f40000d78a300020032000800be002800370020
:100f50000778a30026003a0001f0a10009f0a100e3
:100f60000668a30003003200f1ff2700f0ff2f0006
:100f7000baff37000d68a300030032000800be006e
:100f80008c807000b5ff37000768a30007003a00a7
:100f90000648a30003003200f1ff2700f0ff2f00f6
:100fa000aeff37000d48a300030032006000b80018
:100fb0008c807000a9ff37000748a30004003200ae
:100fc00001f82700000020008c807000a3ff37008c
:100fd000760107000004fd008104fd000205780091
:100fe000720107000802be008a01780059ff37002d
:100ff0000160a000120220004281880097ff3700a4
:101000000100e000120032000500e0001000320094
:10101000889fbe008a9fbe008c9fbe000006eb002a
:1010200001f8a3000300320060001000e080180007
:101030000cf0a00005f8a3000300320060021200cb
:10104000e0821a000cf0a2008005eb0041ff37009f
:101050006000b80002000500038368000700280054
:1010600007036300470ade000480a100c71ade0000
:101070000580a100f70f20000720e10042003200a8
:101080000728e10040003200889fbe008a9fbe0012
:101090008c1f7800f107b200f307b2000400e000f3
:1010a000640032000170a0000500e000680032001a
:1010b0000370a00085054200eb07b1000204b800f0
:1010c0000302b8008484440060854a00020ab80024
:1010d000848444000a854a00030ab80004054500d8
:1010e000040033000804d0008984d2000a85d200ad
:1010f0008b05e9006158e1003d0035000210200039
:10110000090161000308200089816100f7072000c0
:101110008783640008867300c84cde00c853dd0076
:10112000878474004855de000300e00006003200aa
:1011300082037600040032008904e80060054d0057
:101140000a88a3000c003a00f70f20000758e100be
:1011500044003d000a70a100c75ddd000a857500ee
:101160008a007300090078004f0678004f05be0022
:101170004f04be00000006000a05d1008984d30098
:101180008b05e800f0ff3700881f78000604780020
:1011900090000700070278000001fd008101fd00ba
:1011a0008c00070087027800850372000778a3008f
:1011b000050032000001fd008101fd009f000700d5
:1011c0004f04780000000600850372000748a30062
:1011d00003003200f0ff2f00f1ff2700f8ff370077
:1011e0000000200001f8270088807000f4ff37001d
:1011f000880178004848dd00808171004848de00a1
:10120000c850dd0001007000c850de000604780000
:101210000b0178001600070088807000d2ff3700ad
:101220000500e00005003200170020003a0007002a
:101230009dff370081037000f9ff3a0086007800b7
:101240004f0678004f05be004f04be0000000500a9
:1012500083037100f9ff3200270020002e000700f1
:1012600094ff370001f8270086807000f4ff3700f4
:101270000100e00026003200610111007810e10059
:1012800023003c006022b8007010e100040035002b
:1012900080027800010078008000eb0070015100ae
:1012a0000200e0000900340070031100062add008e
:1012b000822ade008603dd00878272000200de00e3
:1012c000860bdd00070070008208de00848171005b
:1012d000f4ff27000482620084817100040028006a
:1012e000848262006102600005f0a6000000060032
:1012f00004827100070032000000e800e08048002e
:10130000000006000002be006000b800efff3700da
:101310006000b80000000600889fbe000004eb00db
:101320006138e10016003a000100e00008003a00d0
:10133000c800de004800dd00880020000100e00059
:1013400003003a00c800de004800dd0068044400e5
:101350008184cf00e9845400060034008908dd0050
:10136000f08314008703de00878070000900dd0031
:1013700009044400610214004f04be00000006008e
:101380000300e00008003a00c811de004811dd004b
:10139000880020000300e00003003a00c811de00ce
:1013a0004811dd00680444008384cf00e9845400c0
:1013b000060034008919dd00f08314008713de0075
:1013c000878171000911dd0009044400e102140065
:1013d000e9ff37002700200001f0a70017002000d8
:1013e000470bde00f60fb200040032000643e800af
:1013f0000a0032004702b300000006000103780033
:10140000f607b2000603700002003a000703b300bb
:10141000000006008702b300000006000103780008
:10142000f607b20006037000020032000770a00049
:10143000000006000760a000000006000478a3007a
:10144000040032000578a300030032000168a30005
:1014500001003a000200be000160a000000006008a
:1014600081017000270032008002eb0001f8a30028
:101470000300320060001000e0801800150020001a
:10148000f40720000202420020003400f70320008d
:1014900087036000060420000003630002082000a8
:1014a000000161004700de00c909dd000080710015
:1014b000c708de000600e000080032008703710064
:1014c000060032001000b0000180b0000188a300c7
:1014d00002003200c108de000402e800f107b20099
:1014e000f30f20000320e10003003d004722dd0050
:1014f000810072002900370001f827000000eb008e
:10150000260037006000b8000000060068021200e4
:101510007f20e100020034006000b8001f003700a7
:101520006011b8007020e1000400350080017800ef
:10153000010078008000eb00700252000400e0001f
:1015400009003400f00312000719dd008419de00e1
:101550000703dd00868171000400de00070bdd005b
:10156000060070008408de00f7ff27008383630015
:1015700087037100060028000303630007003200a0
:101580000700e00003003a0061016000028173007f
:10159000020032001000b0000180b0000500a6007b
:1015a0000000060001f0a000000006004f0ade0067
:1015b0004709de00f107b200f20fb2000b00320063
:1015c000f207b1000170a000c708dd00c901de000c
:1015d000838070004700dd000400a60000000600c4
:1015e00060001000e080180000000600810f70000d
:1015f00001003a00000006008182cf000500e000f3
:1016000010003e008082cf00ee8242007028e10090
:101610000400390007003e00800078000000eb0065
:101620000e003700708312008600de000500dd002a
:101630000a003700708352008600dd000000eb00d6
:1016400006003700e28252008508dd007083120038
:101650000603de00868070000500dd007507b0001f
:101660000501ea000400a60000000600600010006a
:10167000e080180000000600889fbe008a9fbe0020
:10168000841f78006c0007004f00780011003300c1
:10169000f0ff2f00838f6c0006003b0004056500ff
:1016a0000a00a7000800370009f0a600100020007b
:1016b00008003700820f5400838f5c00030039005c
:1016c0001000200001003e000000200009f0a700eb
:1016d0000000ea004f05be004f04be000000e0001d
:1016e00000000600889fbe008a9fbe000082700036
:1016f0000402710004827100260032000004be0062
:101700000200be006011b8006b09200095022000a5
:101710000182cf000a0039000541b1000082cf00ec
:10172000070039000541b1000982cf0004003900eb
:101730000541b1000882cf00010039000541b10028
:1017400005425200120032000a003b008281710003
:10175000610164008100d1000080d3008984d3003e
:101760000884d3008b05e8000442e800f7ff3a0044
:10177000070037000804440089844c00000048003a
:10178000818048008b05e9000442e900f9ff3a0036
:10179000030007004f05be004f04be000000060016
:1017a00081002000618055000b003d000b002000ef
:1017b00061fe2f000100e1001d00340082817100f4
:1017c000610164008904d1000884d3000000e800ae
:1017d000faff3a007100200061006400030070000d
:1017e000020060000900320061044400e0844c0003
:1017f0000988a500050032008b05e8006808e100b3
:1018000002003a008904d1000884d300f20f2000be
:101810000258e10005003d00c75ddd00f907b20098
:101820008980750008007800000006000bf827008a
:101830008b007800000005000004be0024fc0700b7
:101840000003be000405be000200be0020fc07002d
:08185000844f75000000060042
:020000040000fa
:10185800420000006f0000006e0000006a000000f7
:1018680075000000720000002c8c00002e8c000017
:10187800308c0000328c00002e8c0000348c00006c
:04188800368c00009a
:020000040000fa
:10188c001400fa00881f7800280707007b07070060
:10189c00254ea80064eea80064cea800c70207007d
:1018ac0000002000a1472400e902070000002000ee
:1018bc0081242400da020700d9030700550607002b
:1018cc00e006070095060700e14f5000c8003a00fb
:1018dc00960607008d060700000f78001e80e800b2
:1018ec00100078008000eb00f4fb0700323323007b
:1018fc0033052400d5fd0700020020000358240006
:10190c00f3fc0700d2cc2c00c3042400cffd07004d
:10191c000e81e8000089be000e80e80010017800fe
:10192c00900190000000200081202400e8fc0700ba
:10193c0002002000030a2400f7fb0700e08988005e
:10194c00f18988009e0078006480400010007800c7
:10195c008000eb00d9fb0700323323003305240051
:10196c00bafd07000200200003582400d8fc070031
:10197c00d2cc2c00c3042400b4fd07000e81e80077
:10198c000089be000e80e8001001780090019000e4
:10199c000000200081202400cdfc07000200200064
:1019ac00030a2400dcfb0700008a8800118a8800e7
:1019bc001e01780068004100100078008000eb00e8
:1019cc00befb070032332300330524009ffd0700c4
:1019dc000200200003582400bdfc0700d2cc2c00d0
:1019ec00c304240099fd07000e81e8000089be00a5
:1019fc000e80e8001001780090019000000020009b
:101a0c0081202400b2fc070002002000030a2400fd
:101a1c00c1fb0700208a8800318a88009e0078006c
:101a2c0066804000100078008000eb00a3fb0700ec
:101a3c00323323003305240084fd0700020020000c
:101a4c0003582400a2fc0700d2cc2c00c3042400b1
:101a5c007efd07000e81e8000089be000e80e800c4
:101a6c0010017800900190000000200081202400db
:101a7c0097fc070002002000030a2400a6fb0700c5
:101a8c00408a8800518a88001e0078001000780077
:101a9c008000eb0089fb0700323323003305240060
:101aac006afd0700020020000358240088fc070090
:101abc00d2cc2c00c304240064fd07000e81e80086
:101acc000089be000e80e8001001780090019000a3
:101adc0000002000812024007dfc07000200200073
:101aec00030a24008cfb0700608a8800718a880036
:101afc00e0898000f189800018c0b300020020004a
:101b0c00031f24002dfb07000000e000010035003e
:101b1c000044eb000804e0000b003a00608a8000ef
:101b2c00718a800018c0b30002002000031f24003b
:101b3c0022fb07000000e000010035000044eb0030
:101b4c000804e00002003200254ea8000100370016
:101b5c00254ea900008a8000118a800018c0b300ad
:101b6c0002002000031f240014fb07000000e0000b
:101b7c00010035000044eb000804e00002003200d4
:101b8c0064eea8000100370064eea900208a8000f2
:101b9c00318a800018c0b30002002000031f24000b
:101bac0006fb07000000e000010035000044eb00dc
:101bbc000804e0000b003a00408a8000518a800043
:101bcc0018c0b30002002000031f2400fbfa07001a
:101bdc000000e000010035000044eb000804e000c8
:101bec000200320064cea8000100370064cea900c8
:101bfc006601470081c328000600090031197800ee
:101c0c0066004700000178007100200000082000e9
:101c1c000e040700006a280011002000b20607001d
:101c2c0028ff37000000fa000ad0bf000080fb003c
:101c3c00cf80de00b200200003002000820f500095
:101c4c00838f58006e003e00000601000b00370029
:101c5c00140037001d00370027003700280037001c
:101c6c0031003700320037003b0037003c003700b2
:101c7c004d0037004e0037005f0037001630ef0084
:101c8c001830ef000041eb006000b80000030700c3
:101c9c0012c0b3006000b800fd02070010c0b30012
:101cac000af0b700b2808000c3808000803e200024
:101cbc0001002000800f5100818f59005300360025
:101ccc0020c0b3000af0b70051003700108180002b
:101cdc00218180000041eb00ed02070010818000a3
:101cec002181800012c0b300e902070030c0b300ac
:101cfc000af0b700460037004700070044003700e1
:101d0c0010818000218180000041eb00e00207007f
:101d1c0012c0b3006000b800dd02070050c0b30071
:101d2c000af0b7003a0037003b00070038003700d4
:101d3c000041eb006000b800d50207001081800064
:101d4c002181800012c0b300d102070070c0b30023
:101d5c000af0b7002e0037002f0007002c003700c8
:101d6c0010818000218180000200200003002400eb
:101d7c00d7fb07000041eb00c50207001081800073
:101d8c002181800001f0a200020020000300240049
:101d9c00cffb070012c0b300bd02070090c0b30018
:101dac000af0b7001a0037001b00070018003700b4
:101dbc00108180002181800001f0a200020020002f
:101dcc0003002400c2fb07000041eb00b002070037
:101ddc00108180002181800002002000030024007b
:101dec00bbfb070012c0b300a9020700b0c0b300d0
:101dfc000af0b700060037000700070004003700a0
:101e0c000a70ef0000000000010037000000000025
:101e1c000080fa00000006000200fa00881f78001b
:101e2c000040eb00004f7800408a8000518a80000f
:101e3c0018c0b30002002000031f240061fa070041
:101e4c000000e00001003c000044eb000804e0004e
:101e5c0024003200608a8000718a800018c0b300b0
:101e6c0002002000031f240054fa07000000e000c9
:101e7c00010035000044eb000804e00016003a00b5
:101e8c00e0898000f189800018c0b30002002000b6
:101e9c00031f240049fa07000000e0000100350090
:101eac000044eb000804e0000e003200208a8000a1
:101ebc00318a800018c0b30002002000031f2400e8
:101ecc0040fa07000000e00001003c000044eb0079
:101edc000804e0000300320020c0b300004f78007b
:101eec0013013700408a8000518a800018c0b3006b
:101efc0002002000031f240030fa07000000e0005d
:101f0c00010035000044eb000804e0000b00320037
:101f1c00608a8000718a800018c0b3000200200023
:101f2c00031f240027fa07000000e00001003c001a
:101f3c000044eb000804e0002c003a00408a8000ca
:101f4c00518a800018c0b30002002000031f240037
:101f5c001cfa07000000e00001003c000044eb000c
:101f6c000804e00024003200208a8000318a8000be
:101f7c0018c0b30002002000031f24000ffa070052
:101f8c000000e000010035000044eb000804e00014
:101f9c0019003200e0898000f189800018c0b3007c
:101fac0002002000031f240006fa07000000e000d6
:101fbc0001003c000044eb000804e0000e0032007d
:101fcc00608a8000718a800018c0b3000200200073
:101fdc00031f2400fbf907000000e00001003c0097
:101fec000044eb000804e0000300320010c0b30012
:101ffc00004f7800ce003700408a8000518a800064
:10200c0018c0b30002002000031f2400ebf90700e6
:10201c000000e000010035000044eb000804e00083
:10202c000b003200608a8000718a800018c0b300f7
:10203c0002002000031f2400e0f907000000e0006c
:10204c00010035000044eb000804e0004d003a00ac
:10205c00408a8000518a800018c0b3000200200022
:10206c00031f2400d7f907000000e00001003c002a
:10207c000044eb000804e00045003200608a800058
:10208c00718a800018c0b30002002000031f2400d6
:10209c00ccf907000000e00001003c000044eb001c
:1020ac000804e0003a003200e0898000f1898000e9
:1020bc0018c0b30002002000031f2400bff9070062
:1020cc000000e000010035000044eb000804e000d3
:1020dc000b003200208a8000318a800018c0b300c7
:1020ec0002002000031f2400b4f907000000e000e8
:1020fc00010035000044eb000804e00021003a0028
:10210c00208a8000318a800018c0b30002002000b1
:10211c00031f2400abf907000000e00001003c00a5
:10212c000044eb000804e00019003200e089800054
:10213c00f189800018c0b30002002000031f2400a6
:10214c00a0f907000000e00001003c000044eb0097
:10215c000804e0000e003200008a8000118a800022
:10216c0018c0b30002002000031a240093f90700e2
:10217c000000e000010035000044eb000804e00022
:10218c000300320030c0b300004f78006800370005
:10219c00408a8000518a800018c0b30002002000e1
:1021ac00031a240085f907000000e0000100350047
:1021bc000044eb000804e0002f003200208a80006d
:1021cc00318a800018c0b30002002000031f2400d5
:1021dc007cf907000000e00001003c000044eb002b
:1021ec000804e00024003200008a8000118a80007c
:1021fc0018c0b30002002000031a240071f9070074
:10220c000000e00001003c000044eb000804e0008a
:10221c0019003200e0898000f189800018c0b300f9
:10222c0002002000031f240066f907000000e000f4
:10223c0001003c000044eb000804e0000e003200fa
:10224c00608a8000718a800018c0b30002002000f0
:10225c00031a240059f907000000e00001003500c2
:10226c000044eb000804e000030032000040eb00e7
:10227c00004f78002e003700e0898000f189800043
:10228c0018c0b30002002000031a24004df9070007
:10229c000000e00001003c000044eb000804e000fa
:1022ac0023003200208a8000318a800018c0b300dd
:1022bc0002002000031a240042f907000000e0008d
:1022cc0001003c000044eb000804e0001800320060
:1022dc00408a8000518a800018c0b30002002000a0
:1022ec00031a240037f907000000e00001003c004d
:1022fc000044eb000804e0000d003200608a80000e
:10230c00718a800018c0b30002002000031a240058
:10231c002cf907000000e00001003c000044eb0039
:10232c000804e000020032000040eb00004f78008f
:10233c001e4078000004e00003003a0020c0b30007
:10234c000bf0b700110037001e407800e24f500030
:10235c0003003a0040c0b3000bf0b7000b0037008d
:10236c001e407800e14f500003003a0060c0b300fb
:10237c000bf0b700050037001e407800e34f50000b
:10238c0002003a0080c0b3000bf0b7000bd0bf00c6
:10239c008080fb000ad0bf000080fb000000e90039
:1023ac00808f5000020032000bd0bf000af0b70043
:1023bc004f0478000080fa00000006000000fa00cc
:1023cc0013e1a90011e1a9001061a8001021a900d6
:1023dc0081088000f0fc2f000080600080088800dd
:1023ec000a21ef000621ef00404c20007008880005
:1023fc0000402b00600888002142800080ff2f00e5
:10240c00008060000000a000204288000108a900a4
:10241c002108a80011e1a8000080fa0000000600c5
:10242c000400fa00008fbe0005e1a9000421a900f8
:10243c001e0078009e009000110007000068a900a3
:10244c002068a80005e1a8000080fa000000060042
:10245c000400fa00008fbe001fe1a9001e21a90094
:10246c001e0078009e009000790007000368a90008
:10247c002368a8001fe1a8000080fa0000000600f5
:10248c000400fa00881f7800008fbe00210880002d
:10249c00f0fc2f0000806000200888001e017800ee
:1024ac009e0190000068290081c1240008fa0700f1
:1024bc0018c0b30002f02f00f3772400c1f8070016
:1024cc000000e00001003c000044eb000804e000c8
:1024dc005400320021088000f0fc2f0000806000c6
:1024ec000040a000200888001e0178009e0190008a
:1024fc000068290081c12400f5f9070002002000c2
:10250c0003102400f2f9070018c0b30002f02f00ea
:10251c00f3772400abf807000000e00001003c005a
:10252c000044eb000804e000320032002108800077
:10253c00f0fc2f00008060000050a00020088800f4
:10254c001e0178009e0190000068290081c12400c2
:10255c00dff907000200200003282400dcf9070043
:10256c0018c0b30002f02f00f377240095f8070091
:10257c000000e00001003c000044eb000804e00017
:10258c0010003200210880000003200001007000c0
:10259c00200888001e0178009e0190000068290028
:1025ac0081c12400caf9070002002000033824006e
:1025bc00c7f9070085f807000000780010088800ac
:1025cc00200037001e0178009e0190000068290051
:1025dc0081c12400bef9070002002000032824005a
:1025ec00bbf9070079f80700000078001008880094
:1025fc00140037001e0178009e019000006829002d
:10260c0081c12400b2f9070002002000031024004d
:10261c00aff907006df8070000007800100888007b
:10262c00080037001e0178009e0190000068290008
:10263c0081c12400a6f9070064f8070000007800a7
:10264c00100888004f0478000080fa000000060093
:10265c000400fa00881f7800008fbe00f10880008b
:10266c00f0fc2f0000806000f00888001e0178004c
:10267c009e0190000068290081c1240094f9070094
:10268c0018c0b30002f02f00f37724004df80700b8
:10269c000000e00001003c000044eb000804e000f6
:1026ac0054003200f1088000f0fc2f000080600024
:1026bc000040a000f00888001e0178009e019000e8
:1026cc000068290081c1240081f907000200200064
:1026dc00031024007ef9070018c0b30002f02f008d
:1026ec00f377240037f807000000e00001003c00fd
:1026fc000044eb000804e00032003200f1088000d6
:10270c00f0fc2f00008060000050a000f008880052
:10271c001e0178009e0190000068290081c12400f0
:10272c006bf90700020020000328240068f9070059
:10273c0018c0b30002f02f00f377240021f8070033
:10274c000000e00001003c000044eb000804e00045
:10275c0010003200f108800000032000010070001e
:10276c00f00888001e0178009e0190000068290086
:10277c0081c1240056f90700020020000338240010
:10278c0053f9070011f8070000007800d008880002
:10279c00200037001e0178009e019000006829007f
:1027ac0081c124004af907000200200003282400fc
:1027bc0047f9070005f8070000007800d0088800ea
:1027cc00140037001e0178009e019000006829005b
:1027dc0081c124003ef907000200200003102400f0
:1027ec003bf90700f9f7070000007800d0088800d3
:1027fc00080037001e0178009e0190000068290037
:10280c0081c1240032f90700f0f7070000007800be
:10281c00d00888004f0478000080fa000000060001
:10282c000000fa001160800080ff2f000080600023
:10283c001060880000fa20002060880023aca800fb
:10284c00238ca80011618000f03f2f0000806000f5
:10285c0000a0a000106188003000200020618800da
:10286c00c3aca800c38ca80011668000f03f2f00f9
:10287c000080600000a0a0001066880030002000de
:10288c002066880001eca8000080fa000000060019
:10289c000600fa00008fbe00640047000248780072
:1028ac006400470010407800e14f500005003a00ea
:1028bc001e0178009e01900062898800738988004f
:1028cc000900370064004700104078000004e00065
:1028dc0005003a001e0078009e00900001f0a20056
:1028ec00a0898800b18988000080fa0000000600e9
:1028fc000000fa00889fbe00c4898000d589800042
:10290c00a0898000b189800018c0b3000001be000e
:10291c000400be00a9f707000000e000010035002c
:10292c000044eb000804e0000d003200a889800090
:10293c00b9898000c4898000d5898000f08080002e
:10294c00018180000001be000400be00fbf70700ff
:10295c000801be006c010700c0898800d18988007d
:10296c00c4898000d5898000a0898000b18980004d
:10297c0018c0b3000001be000400be0091f70700b0
:10298c000000e00001003c000044eb000804e00003
:10299c000d003200a8898000b9898000c4898000ac
:1029ac00d5898000f0808000018180000001be008c
:1029bc000400be00d8f707000801be00380107006c
:1029cc00c0898800d1898800c0898000d1898000a5
:1029dc0018c0b3006011b8007af707000000e000df
:1029ec0001003c000044eb000804e000040032004d
:1029fc00c3cca90024eea800c3eca8000300370048
:102a0c00c3eca90024cea800c3cca800c0898000c8
:102a1c00d18980000c010700020020000322240051
:102a2c008af907008af707000000780030668800f2
:102a3c00848980009589800060898000718980007c
:102a4c0018c0b3000001be000400be005bf7070015
:102a5c000000e000010035000044eb000804e00039
:102a6c000d0032006889800079898000848980009b
:102a7c0095898000f0808000018180000001be00fb
:102a8c000400be00adf707000801be001e010700e0
:102a9c0080898800918988008489800095898000cc
:102aac00608980007189800018c0b3000001be00ed
:102abc000400be0043f707000000e00001003c00ea
:102acc000044eb000804e0000d003200688980002f
:102adc00798980008489800095898000f08080004d
:102aec00018180000001be000400be008af70700cf
:102afc000801be00ea0007008089880091898800df
:102b0c00808980009189800018c0b3006011b800e2
:102b1c002cf707000000e00001003c000044eb0033
:102b2c000804e0000400320023cca90015eea80034
:102b3c0023eca8000300370023eca90015cea80055
:102b4c0023cca8008089800091898000be000700fa
:102b5c0002002000032224003cf907003cf7070088
:102b6c0000007800306188004f04be000080fa003d
:102b7c00000006000a00fa00e40147008009780012
:102b8c0066004700010878006800470002087800da
:102b9c000040eb00004f7800e0cfb3001e4f680000
:102bac0064004700100078004880de000040780088
:102bbc001e4f680064004700100078000040780049
:102bcc001e4f680066004700100078004880de0049
:102bdc00004078001e4f6800660047001000780027
:102bec00004078001e4f68008000eb000e80e8006b
:102bfc00010878000c0037000e80e8009000780087
:102c0c006800470010007800010040001040780078
:102c1c001e4f68000e80e800100078008000e8006d
:102c2c000e80e800010878000e80e8009000780023
:102c3c006600470010007800808f5000eeff3500d2
:102c4c001e4078000080fa00000006000e00fa001a
:102c5c00889fbe008a1f7800e80147008009780031
:102c6c006a004700010878006c00470002087800f1
:102c7c008f0478000f007800000578006a00470088
:102c8c0010007800e60040000e80e8000108780093
:102c9c000e80e800100078000001e900e400470015
:102cac0082087800000040000000e8000000e80006
:102cbc000000d100800040000f00780081874700a1
:102ccc000000e8000000d10000004000e6004700d2
:102cdc00800878006600470010007800e10f2000a3
:102cec000108780068004700100078004880de007a
:102cfc00004078000080fb008000780066004700f0
:102d0c00100078000080e800010878006800470097
:102d1c0010007800004078000080fb0080007800f4
:102d2c00660047001000780064004000010878003d
:102d3c006a004700100078004880de0000407800f0
:102d4c000080fb00800078006600470010007800cf
:102d5c0066004000010878006a0047001000780007
:102d6c00004078000080fb0080007800660047007f
:102d7c001000780068004000010878000000eb00ab
:102d8c00000f78000f0037009e007800658040002f
:102d9c001e017800ec004700910078008280400012
:102dac00914078008180fb0001017800e60047002b
:102dbc00910078000000400000804000020878007c
:102dcc001e0fe8006a004700100078009e00780093
:102ddc00808f5000ecff35006a004700100078002f
:102dec00650440006c004700100178006a00470041
:102dfc009000780068004700100078005dff070025
:102e0c000080fb008000780066004700100178000d
:102e1c0008004400000041000108780066004700eb
:102e2c00100078008e80e800910078009d0107006a
:102e3c008a077800890778004f0578004f04be0098
:102e4c000080fa00000006000400fa00881f7800d9
:102e5c00008fbe0018c0b3006011b8001e007800cf
:102e6c009e00900057f607000000e00001003d00b6
:102e7c000044eb000804e000030032001e00780060
:102e8c009e009000030037001e0078009e0090000a
:102e9c0001f0a2004f0478000080fa000000060048
:102eac000800fa00881f7800008fbe0064004700fd
:102ebc000288be0018c0b3006400470010017800ff
:102ecc00900190001e0078009e0090003df60700d7
:102edc000000e00001003c000044eb000804e000ae
:102eec00030032001e0078009e00900003003700a3
:102efc006400470090009000100078004f047800a8
:102f0c000080fa00000006000800fa00881f780014
:102f1c00008fbe00640047000288be0018c0b300da
:102f2c006400470010017800900190001e007800aa
:102f3c009e00900021f607000000e0000100350023
:102f4c000044eb000804e000030032001e0078008f
:102f5c009e00900003003700640047009000900032
:102f6c00100078004f0478000080fa000000060082
:102f7c000c00fa00881f7800008fbe006400470028
:102f8c000288be00680047000488be0018c0b30069
:102f9c006800470010017800900190001e00780036
:102fac009e00900007f607000000e00001003c00c6
:102fbc000044eb000804e000040032006800470005
:102fcc00301f7800201778000f00370018c0b300ae
:102fdc006400470010017800900190001e007800fa
:102fec009e009000f5f507000000e00001003500a0
:102ffc000044eb000804e0000300320064004700ca
:10300c00301f7800201778001e0078009e0090007a
:10301c004f0478000080fa00000006000400fa005b
:10302c00008fbe00b2fd2000930424001e00780027
:10303c009e00900026f70700020020004333240076
:10304c0002f807000080fa00000006000400fa00f5
:10305c00008fbe00b2fd2000930424001e007800f7
:10306c009e009000f9f70700020020004333240073
:10307c0017f707000080fa00000006000600fa00af
:10308c000e81e80000097800640047000108780010
:10309c000040eb00004f780057000700e4004700a9
:1030ac0091007800810f5000130034000040eb00b9
:1030bc00004f7800070037001e80fb008e80e80070
:1030cc009100780000804000104078000c00070050
:1030dc001e4fe8001e80fb00e400470091007800c2
:1030ec00810f5000f4ff35002e0007000004e000b3
:1030fc0001003a00220007000080fa0000000600e0
:10310c000200fa00004f780071808000a00a2100b4
:10311c00010040001e487800708080000000e8002c
:10312c007080880071808000f0072000808f500034
:10313c00010034000e30ef000080fa0000000600a1
:10314c000200fa0081808000a00a210001004000ea
:10315c00104f7800808080000000e800808088009c
:10316c0081808000f0072000808f50000100340027
:10317c001030ef001e4078000080fa0000000600be
:10318c000200fa0010c0b30012f0b700ecff070009
:10319c00004f78001e80fb00201188000080fa0090
:1031ac00000006000000fa0012d0bf000080fa00f8
:1031bc00000006000200fa00718080008080800010
:1031cc00808f500006003d00718080008080800060
:1031dc000080500001082000010f40000300370060
:1031ec007180800080808000008f50001e0078006d
:1031fc000080fa00000006000200fa00edff070054
:10320c0001082000008f50001e0078000080fa009a
:10321c00000006000000fa0021e3a9002143a800e9
:10322c0001198000f0cf2f00008060000019880089
:10323c002043a90001198000000e2000010070003d
:10324c000019880011198000f0ff21000080600037
:10325c00101988002343a80011198000f0cf2f000b
:10326c0000806000101988001119800030f82f00c0
:10327c00008060000040a000101988002203a90003
:10328c002223a90025e3a900f0c0b30024e3b70072
:10329c0021198000f00f2e008080600000f02000cb
:1032ac0001007000201988003303a9002e0ea8001d
:1032bc002f6ea8006f2ea8001e2ea8004feea8009f
:1032cc0030c3a8003163a8002e03a8003063a80007
:1032dc0031e3a8004119800000fc2f000080600041
:1032ec004019880028e3a90001a8a90021a8a8007a
:1032fc0021e3a8000080fa00000006000000fa009c
:10330c002023a8000080fa00000006000000fa004c
:10331c00001521000080fa00000006000000fa00f1
:10332c0027d0bf000080fa00000006000000fa0061
:10333c002770ef000080fa00000006000200fa007f
:10334c00004f7800d1808000a002210001004000d5
:10335c001e487800d08080000000e800d0808800f3
:10336c00d1808000f0072000808f500001003400d5
:10337c001a30ef000080fa00000006000200fa008c
:10338c00e1808000a002210001004000104f780075
:10339c00e08080000000e800e0808800e180800090
:1033ac00f0072000808f5000010034001c30ef002b
:1033bc001e4078000080fa00000006000000fa00b1
:1033cc00d1808000e0808000808f500002003200ad
:1033dc0010c0b300010037000040eb000080fa0081
:1033ec00000006000200fa00d1808000e08080001e
:1033fc00808f500006003d00d1808000e08080006e
:10340c000080500001082000010f4000030037002d
:10341c00d1808000e0808000008f50001e0078007a
:10342c000080fa00000006000200fa00edff070021
:10343c0001082000008f50001e0078000080fa0068
:10344c00000006000000fa002002a9000111800013
:10345c0090ff2f00008060000011880020a2a900be
:10346c002062a800500520004011880023a2a9006a
:10347c0023e2a9000188a9002188a800111180006d
:10348c00f0f32f0000806000101188000168a90083
:10349c002168a80021e2a8002342a8000080fa00bd
:1034ac00000006000600fa000e81e8000009780012
:1034bc0064004700010878000040eb00004f7800e2
:1034cc000040eb00004f78001100370000000000b6
:1034dc001111800000202000008060000000e0003e
:1034ec00fbff3a000e80e8001000780010407800d6
:1034fc000080fb00201188000e80e800100078008e
:10350c008000e8000e80e800010878001e4fe800fb
:10351c001e80fb00e400470091007800810f5000f2
:10352c00eaff35000080fa00000006000000fa00f7
:10353c00f0032000303a8800213a8000f0f32f008d
:10354c0000806000203a8800213a800000fe2f00a5
:10355c00008060000000a000203a880012002000cb
:10356c0080072000a10920003374200080497800d6
:10357c008149780082497800103a80000001780077
:10358c000200a000600420007105200023742000bc
:10359c008049780081497800824978000000000059
:1035ac00113a80000000270080806000000021009c
:1035bc00808f5000faff3a0000000000113a8000a2
:1035cc0000022000008060000000e000fbff3200e1
:0835dc000080fa000000060067
:020000040000fa
:1035e400501100000a0000008000000026100000b6
:1035f40002000000800000002a100000800000008b
:10360400800000001a100000040000008000000088
:10361400aa10000080000000800000000e100000ce
:1036240006000000800000001e10000004000000de
:10363400820000000000a000400000002a110000e9
:103644002600000080000000001000000e000000b2
:10365400800000002210000004000000820000002e
:103664000000c80041000000141000000600000023
:10367400800000002810000002000000800000000c
:043684000000000042
:020000040000fa
:103688000000fa000e2eef001e2eef002e2eef0087
:103698003e2eef004e2eef005e2eef006e2eef0056
:1036a800214ea90060cea90060eea90011cea900a4
:1036b80011eea90020cea90020eea9002136800035
:1036c80000f82f00008060008001b30020368800d9
:1036d8001134800000fc2f00008060000000a00072
:0c36e800103488000080fa00000006008a
:020000040000fa
:1036f400f03fb1000180b10006003500ee0309007f
:1037040000000000403fb1000180b100fbff3d001c
:103714001000b000203fb000020035000080090016
:08372400000000000000060097
:020000040000fa
:02000004000af0
:04afe000cfff00009f
:020000040000fa
:02000004000af0
:04afe400ffff00006b
:020000040000fa
:02000004000af0
:04afe8007fff0000e7
:020000040000fa
:02000004000af0
:04afec005fff000003
:020000040000fa
:02000004000af0
:04aff00038ff000026
:020000040000fa
:02000004000af0
:04aff400ffffff005c
:00000001FF
