:020000040000fa
:080000000002040000000000f2
:020000040000fa
:04000800ae03000043
:020000040000fa
:04000c00ae0300003f
:020000040000fa
:04001000ae0300003b
:020000040000fa
:04001400ae03000037
:020000040000fa
:04001800ae03000033
:020000040000fa
:04001c00ae0300002f
:020000040000fa
:04002000ae0300002b
:020000040000fa
:04002400ae03000027
:020000040000fa
:04002800ae03000023
:020000040000fa
:04002c00ae0300001f
:020000040000fa
:04003000ae0300001b
:020000040000fa
:040034004403000081
:020000040000fa
:04003800ae03000013
:020000040000fa
:04003c00ae0300000f
:020000040000fa
:04004000ae0300000b
:020000040000fa
:04004400ae03000007
:020000040000fa
:04004800fa020000b8
:020000040000fa
:04004c00ae030000ff
:020000040000fa
:04005000ae030000fb
:020000040000fa
:04005400ae030000f7
:020000040000fa
:04005800ae030000f3
:020000040000fa
:04005c008c03000011
:020000040000fa
:04006000ae030000eb
:020000040000fa
:04006400ae030000e7
:020000040000fa
:04006800ae030000e3
:020000040000fa
:04006c00ae030000df
:020000040000fa
:04007000ae030000db
:020000040000fa
:04007400ae030000d7
:020000040000fa
:04007800ae030000d3
:020000040000fa
:04007c00ae030000cf
:020000040000fa
:04008000ae030000cb
:020000040000fa
:04008400ae030000c7
:020000040000fa
:04008800ae030000c3
:020000040000fa
:04008c00ae030000bf
:020000040000fa
:04009000ae030000bb
:020000040000fa
:040094006203000003
:020000040000fa
:04009800ae030000b3
:020000040000fa
:04009c00ae030000af
:020000040000fa
:0400a000ae030000ab
:020000040000fa
:0400a400ae030000a7
:020000040000fa
:0400a800ae030000a3
:020000040000fa
:0400ac00ae0300009f
:020000040000fa
:0400b000ae0300009b
:020000040000fa
:0400b400ae03000097
:020000040000fa
:0400b800ae03000093
:020000040000fa
:0400bc00ae0300008f
:020000040000fa
:0400c000ae0300008b
:020000040000fa
:0400c400ae03000087
:020000040000fa
:0400c800ae03000083
:020000040000fa
:0400cc00ae0300007f
:020000040000fa
:0400d000ae0300007b
:020000040000fa
:0400d400ae03000077
:020000040000fa
:0400d800ae03000073
:020000040000fa
:0400dc00ae0300006f
:020000040000fa
:0400e000ae0300006b
:020000040000fa
:0400e400ae03000067
:020000040000fa
:0400e800ae03000063
:020000040000fa
:0400ec00ae0300005f
:020000040000fa
:0400f000ae0300005b
:020000040000fa
:0400f400ae03000057
:020000040000fa
:0400f800ae03000053
:020000040000fa
:0400fc00ae0300004f
:020000040000fa
:04010000ae0300004a
:020000040000fa
:04010400ae03000046
:020000040000fa
:04010800ae03000042
:020000040000fa
:04010c00ae0300003e
:020000040000fa
:04011000ae0300003a
:020000040000fa
:04011400ae03000036
:020000040000fa
:04011800ae03000032
:020000040000fa
:04011c00ae0300002e
:020000040000fa
:04012000ae0300002a
:020000040000fa
:04012400ae03000026
:020000040000fa
:04012800ae03000022
:020000040000fa
:04012c00ae0300001e
:020000040000fa
:04013000ae0300001a
:020000040000fa
:04013400ae03000016
:020000040000fa
:04013800ae03000012
:020000040000fa
:04013c00ae0300000e
:020000040000fa
:04014000ae0300000a
:020000040000fa
:04014400ae03000006
:020000040000fa
:04014800ae03000002
:020000040000fa
:04014c00ae030000fe
:020000040000fa
:04015000ae030000fa
:020000040000fa
:04015400ae030000f6
:020000040000fa
:04015800ae030000f2
:020000040000fa
:04015c00ae030000ee
:020000040000fa
:04016000ae030000ea
:020000040000fa
:04016400ae030000e6
:020000040000fa
:04016800ae030000e2
:020000040000fa
:04016c00ae030000de
:020000040000fa
:04017000ae030000da
:020000040000fa
:04017400ae030000d6
:020000040000fa
:04017800ae030000d2
:020000040000fa
:04017c00ae030000ce
:020000040000fa
:04018000ae030000ca
:020000040000fa
:04018400ae030000c6
:020000040000fa
:04018800ae030000c2
:020000040000fa
:04018c00ae030000be
:020000040000fa
:04019000ae030000ba
:020000040000fa
:04019400ae030000b6
:020000040000fa
:04019800ae030000b2
:020000040000fa
:04019c00ae030000ae
:020000040000fa
:0401a000ae030000aa
:020000040000fa
:0401a400ae030000a6
:020000040000fa
:0401a800ae030000a2
:020000040000fa
:0401ac00ae0300009e
:020000040000fa
:0401b000ae0300009a
:020000040000fa
:0401b400ae03000096
:020000040000fa
:0401b800ae03000092
:020000040000fa
:0401bc00ae0300008e
:020000040000fa
:0401c000ae0300008a
:020000040000fa
:0401c400ae03000086
:020000040000fa
:0401c800ae03000082
:020000040000fa
:0401cc00ae0300007e
:020000040000fa
:0401d000ae0300007a
:020000040000fa
:0401d400ae03000076
:020000040000fa
:0401d800ae03000072
:020000040000fa
:0401dc00ae0300006e
:020000040000fa
:0401e000ae0300006a
:020000040000fa
:0401e400ae03000066
:020000040000fa
:0401e800ae03000062
:020000040000fa
:0401ec00ae0300005e
:020000040000fa
:0401f000ae0300005a
:020000040000fa
:0401f400ae03000056
:020000040000fa
:0401f800ae03000052
:020000040000fa
:0401fc00ae0300004e
:020000040000fa
:04020000ae03000049
:020000040000fa
:04020400ae03000045
:020000040000fa
:04020800ae03000041
:020000040000fa
:04020c00ae0300003d
:020000040000fa
:04021000ae03000039
:020000040000fa
:04021400ae03000035
:020000040000fa
:04021800ae03000031
:020000040000fa
:04021c00ae0300002d
:020000040000fa
:04022000ae03000029
:020000040000fa
:04022400ae03000025
:020000040000fa
:04022800ae03000021
:020000040000fa
:04022c00ae0300001d
:020000040000fa
:04023000ae03000019
:020000040000fa
:04023400ae03000015
:020000040000fa
:04023800ae03000011
:020000040000fa
:04023c00ae0300000d
:020000040000fa
:04024000ae03000009
:020000040000fa
:04024400ae03000005
:020000040000fa
:04024800ae03000001
:020000040000fa
:04024c00ae030000fd
:020000040000fa
:04025000ae030000f9
:020000040000fa
:04025400ae030000f5
:020000040000fa
:04025800ae030000f1
:020000040000fa
:04025c00ae030000ed
:020000040000fa
:04026000ae030000e9
:020000040000fa
:04026400ae030000e5
:020000040000fa
:04026800ae030000e1
:020000040000fa
:04026c00ae030000dd
:020000040000fa
:04027000ae030000d9
:020000040000fa
:04027400ae030000d5
:020000040000fa
:04027800ae030000d1
:020000040000fa
:04027c00ae030000cd
:020000040000fa
:04028000ae030000c9
:020000040000fa
:100400008f0421000eff2c000e0188000000000068
:10041000000020000000e000020032000001200087
:100420002002880014000700ce0007000000e00052
:1004300003003a00600b2100010020000200370099
:100440000000200001002000810f70000100320038
:100450000f000700000020000000e0000200320052
:1004600000000200000000001a0702000000000067
:100470000040da000000fe00200020000000e00044
:1004800002003200100020009001880000000600e9
:10049000a1028800800478000000eb001f003700f4
:1004a000e284440054a0b4009905ba00e2844400f8
:1004b00054a0b4009906ba00e284440054a0b400e9
:1004c0000006eb00476fde00fd07b200ae018800ba
:1004d000636ce10003003a000ad801000000eb0061
:1004e0000e003700606ce10008003a00004deb00a0
:1004f0000a05e800020039003420ec000af0a000f0
:100500008b05e900f9ff3e00040037006168e10057
:10051000010032000086eb000b00070019c7ba008b
:100520000e04e0001905ba0003003a000a00e000da
:10053000dbff3a0000000600fe07b200ae028800b2
:100540008a047800f5ff37000cd0a300e20f4d00bd
:100550001c00390089027800354dba000a05e80010
:10056000020039003420ec000af0a0008b05e900fd
:100570000f003200254dba000a05e80002003900dc
:100580003420ec000af0a0008b05e90008003200de
:100590000c00e0000600320015cdba000a05e800a4
:1005a000020039003420ec000af0a0008b05e900bd
:1005b0008984e80054a0b4000b00e000e2ff3a0098
:1005c000000006009902ba00055d78008b05e9007d
:1005d000f7ff3200c82ade00055d78008b05e900d0
:1005e000f3ff32000c00e000f1ff320019ddba0029
:1005f000eeff37003600f800809fbe00829fbe00ed
:10060000849fbe00869fbe000000fa000108a9007a
:1006100014d0bf000004e0000b003a000041eb00e2
:1006200000002000011f24002305070012c0b300b2
:1006300000002000011f24001f05070010c0b300a8
:1006400014f0b700090037000041eb000000200063
:10065000011f2c001805070012c0b3000000200085
:10066000011f2c00140507001470ef000080fa0031
:100670004f03be004f02be004f01be004f00be0040
:100680003600f900004006003600f800809fbe00ea
:10069000829fbe00849fbe00869fbe000000fa00bd
:1006a0000068a900760607000080fa004f03be002c
:1006b0004f02be004f01be004f00be003600f900e1
:1006c000004006003600f800809fbe00829fbe00fa
:1006d000849fbe00869fbe000000fa000368a90048
:1006e000b0808000c180800061004000e080480050
:1006f000b0808800c18088005b0207000080fa009b
:100700004f03be004f02be004f01be004f00be00af
:100710003600f90000400600809fbe000000fa008d
:1007200001a8a9000118800020002100010878001c
:10073000111880002000210011009800211880006d
:10074000200021002100980010c0b3000af0b7007b
:100750000080fa004f00be00004006000040da00b2
:100760000000fe000000050003f0a200889fbe000c
:100770008a9fbe008c1f7800180107001f013300fc
:100780006450e1004f0032006420e100520032006a
:1007900003826c0007003b000905d0000306d0006f
:1007a000820f54000c065d00020039000200320086
:1007b00089017800030678008582550004003d0019
:1007c0000003fd008103fd008502ea008b854200e5
:1007d000840f720002003b0060001000e0801800ef
:1007e0006011b8000005eb007a28e1000a0039002a
:1007f00006007800c75ddd00f707b200878075004e
:100800002d003700828171000a01780061056000c7
:100810008180d1000080d3008502e900f9ff3b0010
:10082000060440008784480002003b006004140076
:10083000e0841c000988a300070032008a8171004f
:1008400082817100610164008904d1000884d300b1
:100850008b05e800170037000978a30013003a0061
:100860000b00e000130034008b05e900080444008d
:1008700089844c000a4474000978a3000d003a00f2
:100880000b00e000070034008b05e9000804440079
:1008900089844c0001003a000b0020000978a30075
:1008a000f7ff32000001eb00020037008281710087
:1008b0000a0178008e0007000cf0a70001f0a000ec
:1008c000d70037006420e10002003a00838f6c00fb
:1008d000d70033000801be000200be00d000370080
:1008e000889fbe008a9fbe008c1f7800bb00070057
:1008f000c200330003866c006450e1002e00320019
:100900006420e100330032006150e1002f0032002a
:100910006120e1003100320085855500eb07b00011
:1009200009002000080420000500370008044400e6
:1009300089844c000a0031000603430087834b0082
:100940000001530081815b00f8ff33000203be0009
:100950000800a0000804440089844c00f6ff390018
:10096000c639dd008301730001003200130020004e
:100970008904d1000884d3000998a300050032003f
:100980000800a7000300a0008904d1000884d30058
:100990008b05e8008904d1000884d3000001eb0036
:1009a0000281d2005200070001f0a1000cf0a70064
:1009b00001f0a0009a0037006420e1009c003200a2
:1009c0000801be000200be00f7ff37006120e10011
:1009d000970032006000b800f3ff370000002000ed
:1009e00001f82700f0ff370014002000c70037008f
:1009f000f4ff2f00c50037000001be0062000700b1
:100a00000470a70003f0a1006509b10016003200d0
:100a10000d0035006828e10006003500f0ff2f00ca
:100a2000f1ff27000300e00013003b000100280055
:100a30000000050000004000818048008502e900b8
:100a4000fcff3a0008003700f88f420002003c002b
:100a50008000eb00000005008100d1000080d30081
:100a60008502e800fcff3a000300e00002003b00c2
:100a700060001000e0801800000006000001be00c9
:100a8000410007000470a70003f0a10003f8a300d1
:100a900013003a006509b10010003200090035006a
:100aa0006928e1000200350001002800000005006f
:100ab00000004000818048008502e900fcff3a0008
:100ac00000000600f88f4200050035008100d100cb
:100ad0000080d3008502e800fcff3a000000060019
:100ae0008000eb00000005006011b800a200370094
:100af00081002000618055000b003d000b002000ac
:100b000061fe2f000100e1001d00340082817100b0
:100b1000610164008904d1000884d3000000e8006a
:100b2000faff3a00710020006100640003007000c9
:100b3000020060000900320061044400e0844c00bf
:100b40000988a500050032008b05e8006808e1006f
:100b500002003a008904d1000884d300f20f20007b
:100b60000258e10005003d00c75ddd00f907b20055
:100b70008980750008007800000006000bf8270047
:100b80008b00780000000500c70ade00f107b20004
:100b9000f50fb20008003200e1cf4200020032003f
:100ba0000170a00024000500810f700001003200d8
:100bb0000408050044000500810f700002003a009f
:100bc000140005008502e9000000400081c04800d3
:100bd000fcff3b000170a000240005000004be00e3
:100be000e9ff07000003be000405be000200be00ce
:100bf000e5ff0700844f7500000006000200be00fc
:100c00006450e100050036006420e1000200360077
:100c10000968a30001003a000800be000160a000be
:100c20004f0678004f05be004f04be0000000600ce
:100c3000f0ff2f00f1ff2700f9ff3700889fbe006b
:100c40008a9fbe008c1f7800e4ff0700ebff330093
:100c500003866c006450e100240032006420e1004f
:100c6000270032006150e100220032006120e100e3
:100c7000210032008b854200eb07b1000134b8003f
:100c8000003ab8000804420089844a00013ab800da
:100c90000030b8008880400009014a000400330099
:100ca0000000400081804800020149008b05e900f6
:100cb000c909dd008301700001003200130020002b
:100cc000c814de004814dd004709de001200b2003f
:100cd000c808de000884700085ff070001f0a1004d
:100ce0000cf0a70001f0a000cdff37006120e1006b
:100cf000cfff32000801be000200be00f7ff370040
:100d00006150e100fcff3a00c9ff3700889fbe0038
:100d10008a9fbe00841f7800b0ff07004f00780054
:100d200011003300f0ff2f00838f6c0006003b00a2
:100d3000040565000a00a7000800370009f0a600b6
:100d40001000200008003700820f5400838f5c00e1
:100d5000030039001000200001003e0000002000c8
:100d600009f0a7000000ea004f05be004f04be00d6
:100d70000000e00000000600889fbe008a9fbe00c1
:100d800000827000040271000482710026003200ab
:100d90000004be000200be006011b8006b09200014
:100da000950220000182cf000a0039000541b10000
:100db0000082cf00070039000541b1000982cf0051
:100dc000040039000541b1000882cf00010039005c
:100dd0000541b10005425200120032000a003b00fa
:100de00082817100610164008100d1000080d30024
:100df0008984d3000884d3008b05e8000442e8000e
:100e0000f7ff3a00070037000804440089844c00cb
:100e100000004800818048008b05e9000442e90099
:100e2000f9ff3a0032ff07004f05be004f04be0035
:040e300000000600b8
:020000040000fa
:100e34000600fa00881f7800a0040700e1040700f8
:100e4400254ea80064eea80064cea800e4010700c3
:100e54000000200081242400fa0107000000200083
:100e6400a147240003020700f60207004d0407000f
:100e74008a040700e14f50004f003a008b0407003a
:100e840082040700000f78001e007800100078002c
:100e94008000eb0013ff07003233230033052400e6
:100ea40065ff070002002000035824008bfe0700a2
:100eb400d2cc2c00c30424005fff07001007980065
:100ec400210798001e019000ae0190000000200050
:100ed4008120240081fe070002002000030a240070
:100ee40020fe0700e0818800f18188001e80e80070
:100ef400100078008000eb00fafe07003233230074
:100f0400330524004cff070002002000035824008e
:100f140072fe0700d2cc2c00c304240046ff070055
:100f240010079800210798001e019000ae01900060
:100f3400000020008120240068fe07000200200039
:100f4400030a240007fe0700c0818800d1818800bd
:100f54009e00780064804000100078008000eb0060
:100f6400e0fe0700323323003305240032ff07007c
:100f7400020020000358240058fe0700d2cc2c00a5
:100f8400c30424002cff07001007980021079800d1
:100f94001e019000ae01900000002000812024007a
:100fa4004efe070002002000030a2400edfd0700a6
:100fb400a0818800b1818800e0818000f1818000f7
:100fc40018c0b30002002000031f240085fe0700a0
:100fd4000000e000010035000044eb000804e000dc
:100fe4000200320064cea8000100370064cea900dc
:100ff400c0818000d181800018c0b30002002000ad
:10100400031f240077fe07000000e0000100350004
:101014000044eb000804e0000200320064eea80083
:101024000100370064eea900a0818000b181800036
:1010340018c0b30002002000031f240069fe07004b
:101044000000e000010035000044eb000804e0006b
:1010540002003200254ea80085ff3700254ea90066
:1010640083ff37000000fa0012d0bf000080fb00ad
:10107400cf80de00b200200003002000820f500069
:10108400838f58006e003e00000601000b003700fd
:10109400140037001d0037002700370028003700f0
:1010a40031003700320037003b0037003c00370086
:1010b4004d0037004e0037005f0037001630ef0058
:1010c4001830ef000041eb006000b800790207001f
:1010d40012c0b3006000b8007602070010c0b3006d
:1010e40012f0b700b2808000c3808000803e2000f0
:1010f40001002000800f5100818f590053003600f9
:1011040020c0b30012f0b70051003700f080800017
:10111400018180000041eb0066020700f08080003e
:101124000181800012c0b3006202070030c0b30026
:1011340012f0b700460037004700070044003700ac
:10114400f0808000018180000041eb00590207001b
:1011540012c0b3006000b8005602070050c0b300cc
:1011640012f0b7003a0037003b00070038003700a0
:101174000041eb006000b8004e020700f0808000e0
:101184000181800012c0b3004a02070070c0b3009e
:1011940012f0b7002e0037002f0007002c00370094
:1011a400f080800001818000020020000300240000
:1011b400cafd07000041eb003e020700f0808000fa
:1011c4000181800001f0a20002002000030024003d
:1011d400c2fd070012c0b3003602070090c0b3007e
:1011e40012f0b7001a0037001b0007001800370080
:1011f400f08080000181800001f0a2000200200044
:1012040003002400b5fd07000041eb00290207009c
:10121400f08080000181800002002000030024008f
:10122400aefd070012c0b30022020700b0c0b30035
:1012340012f0b7000600370007000700040037006b
:101244001270ef00000000000100370000000000f1
:101254000080fa00000006000200fa00881f7800ef
:101264000040eb00004f7800a0818000b181800035
:1012740018c0b30002002000031f2400d9fd07009a
:101284000000e000010035000044eb000804e00029
:1012940016003200c0818000d181800018c0b300e4
:1012a40002002000031a2400d0fd07000000e00023
:1012b40001003c000044eb000804e0000b00320095
:1012c400e0818000f181800018c0b300020020009a
:1012d400031f2400c5fd07000000e00001003c00de
:1012e4000044eb000804e00021003a002082800062
:1012f4003182800018c0b30002002000031f2400c4
:10130400b8fd07000000e000010035000044eb00d8
:101314000804e00019003200c0818000d1818000ff
:1013240018c0b30002002000031a2400affd070018
:101334000000e00001003c000044eb000804e00071
:101344000e003200e0818000f181800018c0b300fb
:1013540002002000031f2400a4fd07000000e00099
:1013640001003c000044eb000804e00003003200ec
:1013740020c0b300004f780076003700a0818000c1
:10138400b181800018c0b30002002000031f2400b4
:1013940096fd07000000e00001003c000044eb0063
:1013a4000804e00016003200c0818000d181800072
:1013b40018c0b30002002000031a24008bfd0700ac
:1013c4000000e00001003c000044eb000804e000e1
:1013d4000b003200e0818000f181800018c0b3006e
:1013e40002002000031f24007efd07000000e0002f
:1013f400010035000044eb000804e00021003a003d
:10140400a0818000b181800018c0b30002002000d8
:10141400031f240075fd07000000e00001003c00ec
:101424000044eb000804e00019003200c081800091
:10143400d181800018c0b30002002000031a2400e8
:101444006afd07000000e00001003c000044eb00de
:101454000804e0000e003200008280001182800047
:1014640018c0b30002002000031f24005dfd070024
:101474000000e000010035000044eb000804e00037
:101484000300320010c0b300004f78003100370071
:10149400c0818000d181800018c0b3000200200008
:1014a400031a24004ffd07000000e000010035008e
:1014b4000044eb000804e0000300320030c0b30035
:1014c400004f780023003700a0818000b1818000a4
:1014d40018c0b30002002000031f240043fd0700ce
:1014e4000000e00001003c000044eb000804e000c0
:1014f40018003200c0818000d181800018c0b30080
:1015040002002000031a240038fd07000000e00058
:1015140001003c000044eb000804e0000d00320030
:10152400e0818000f181800018c0b3000200200037
:10153400031f24002dfd07000000e00001003c0013
:101544000044eb000804e000020032000040eb001d
:10155400004f78001e4078000004e00003003a00c9
:1015640020c0b30013f0b700110037001e4078000c
:10157400e24f500003003a0040c0b30013f0b7003c
:101584000b0037001e407800e14f500003003a0082
:1015940060c0b30013f0b700050037001e407800a8
:1015a400e34f500002003a0080c0b30013f0b700cc
:1015b40013d0bf008080fb0012d0bf000080fb006e
:1015c4000000e900808f50000200320013d0bf00f9
:1015d40012f0b7004f0478000080fa000000060003
:1015e4000000fa0013e1a90011e1a9001061a800ac
:1015f4001021a90081088000f0fc2f000080600009
:10160400800888000a21ef000621ef00404c2000ea
:101614007008880000402b00600888002142800088
:1016240080ff2f00008060000000a000204288009e
:101634000108a9002108a80011e1a8000080fa000f
:10164400000006000400fa00008fbe0005e1a900b6
:101654000421a9001e0078009e00900011000700dc
:101664000068a9002068a80005e1a8000080fa002d
:10167400000006000400fa00008fbe001fe1a9006c
:101684001e21a9001e0078009e009000790007002a
:101694000368a9002368a8001fe1a8000080fa00dd
:1016a400000006000400fa00881f7800008fbe00c6
:1016b40021088000f0fc2f000080600020088800d2
:1016c4001e0178009e0190000068290081c1240059
:1016d40082fc070018c0b30002f02f00f377240047
:1016e400c2fc07000000e00001003c000044eb00e5
:1016f4000804e0005400320021088000f0fc2f00b0
:10170400008060000040a000200888001e017800ce
:101714009e0190000068290081c124006ffc07002d
:1017240002002000031024006cfc070018c0b30062
:1017340002f02f00f3772400acfc07000000e00067
:1017440001003c000044eb000804e00032003200d9
:1017540021088000f0fc2f00008060000050a000f1
:10176400200888001e0178009e019000006829006e
:1017740081c1240059fc0700020020000328240032
:1017840056fc070018c0b30002f02f00f3772400c2
:1017940096fc07000000e00001003c000044eb0060
:1017a4000804e0001000320021088000000320003b
:1017b40001007000200888001e0178009e0190003e
:1017c4000068290081c1240044fc070002002000b5
:1017d4000338240041fc070086fc07000000780061
:1017e40010088800200037001e0178009e01900038
:1017f4000068290081c1240038fc07000200200091
:101804000328240035fc07007afc07000000780058
:1018140010088800140037001e0178009e01900013
:101824000068290081c124002cfc0700020020006c
:101834000310240029fc07006efc07000000780058
:1018440010088800080037001e0178009e019000ef
:101854000068290081c1240020fc070065fc070002
:1018640000007800100888004f0478000080fa0017
:10187400000006000400fa00881f7800008fbe00f4
:1018840021088000f0fc2f00008060002008880000
:101894001e0178009e0190000068290081c1240087
:1018a4000efc070018c0b30002f02f00f3772400e9
:1018b4004efc07000000e00001003c000044eb0087
:1018c4000804e00054003200f1088000f0fc2f000e
:1018d400008060000040a000f00888001e0178002d
:1018e4009e0190000068290081c12400fbfb0700d1
:1018f4000200200003102400f8fb070018c0b30006
:1019040002f02f00f377240038fc07000000e00009
:1019140001003c000044eb000804e0003200320007
:10192400f1088000f0fc2f00008060000050a0004f
:10193400f00888001e0178009e01900000682900cc
:1019440081c12400e5fb07000200200003282400d5
:10195400e2fb070018c0b30002f02f00f377240065
:1019640022fc07000000e00001003c000044eb0002
:101974000804e00010003200f10880000003200099
:1019840001007000f00888001e0178009e0190009c
:101994000068290081c12400d0fb07000200200058
:1019a40003382400cdfb070012fc07000000780078
:1019b40010088800200037001e0178009e01900066
:1019c4000068290081c12400c4fb07000200200034
:1019d40003282400c1fb070006fc07000000780070
:1019e400d0088800140037001e0178009e01900082
:1019f4000068290081c12400b8fb07000200200010
:101a040003102400b5fb0700fafb07000000780070
:101a1400d0088800080037001e0178009e0190005d
:101a24000068290081c12400acfb0700f1fb07001a
:101a340000007800d00888004f0478000080fa0085
:101a4400000006000000fa001160800080ff2f00f3
:101a5400008060001060880000fa20002060880088
:101a640023aca800238ca80011618000f03f2f0054
:101a74000080600000a0a0001061880030002000f9
:101a840020618800c3aca800c38ca8001166800044
:101a9400f03f2f000080600000a0a00010668800c6
:101aa400300020002066880001eca8000080fa00c5
:101ab400000006000600fa00008fbe0042479800ae
:101ac4004e409000e14f500005003a001e0178009e
:101ad4009e0190002281880033818800070037002e
:101ae4004e4090000004e00004003a001e0178001b
:101af4009e01900062818800738188000080fa0052
:101b0400000006000000fa00889fbe008481800067
:101b140095818000608180007181800018c0b300cd
:101b24000001be000400be00aefb07000000e000a0
:101b3400010035000044eb000804e0000d00320011
:101b44006881800079818000848180009581800093
:101b5400d0808000e18080000001be000400be004f
:101b640001fb07000801be00b50007008081880062
:101b7400918188008481800095818000608180004b
:101b84007181800018c0b3000001be000400be00d3
:101b940096fb07000000e00001003c000044eb005d
:101ba4000804e0000d003200688180007981800023
:101bb4008481800095818000d0808000e180800055
:101bc4000001be000400be00e6fa07000801be00e2
:101bd40083000700808188009181880080818000d3
:101be4009181800018c0b3006011b8007ffb07002a
:101bf4000000e00001003c000044eb000804e000a9
:101c040004003200c3cca90024eea800c3eca80051
:101c140003003700c3eca90024cea800c3cca8005d
:101c2400808180009181800057000700020020001d
:101c34000322240000fc07008ffb0700000078004b
:101c440030668800448180005581800020818000b6
:101c54003181800018c0b3000001be000400be0042
:101c640060fb07000000e000010035000044eb00c9
:101c74000804e0000d0032002881800039818000d2
:101c84004481800055818000d0808000e180800004
:101c94000001be000400be00b3fa07000801be0044
:101ca40067000700408188005181880044818000da
:101cb40055818000208180003181800018c0b300ec
:101cc4000001be000400be0048fb07000000e00065
:101cd40001003c000044eb000804e0000d00320069
:101ce40028818000398180004481800055818000f2
:101cf400d0808000e18080000001be000400be00ae
:101d040098fa07000801be003500070040818800ea
:101d140051818800408180005181800018c0b30047
:101d24006011b80031fb07000000e00001003c0036
:101d34000044eb000804e0000400320023cca900b6
:101d440015eea80023eca8000300370023eca9003b
:101d540015cea80023cca8004081800051818000ca
:101d6400090007000200200003222400b2fb070040
:101d740041fb070000007800306188004f04be007a
:101d84000080fa00000006000400fa00881f7800b2
:101d9400008fbe0018c0b3006011b8001e007800a8
:101da4009e00900011fb07000000e00001003d00d0
:101db4000044eb000804e000030032001e00780039
:101dc4009e009000030037001e0078009e009000e3
:101dd40001f0a2004f0478000080fa000000060021
:101de4000800fa00881f7800008fbe0022079800c0
:101df4003307980018c0b3002e019000be01900074
:101e04001e0078009e009000f8fa07000000e00031
:101e140001003c000044eb000804e0000300320031
:101e24001e0078009e009000020037002e009000f3
:101e3400be0090004f0478000080fa000000060005
:101e44000800fa00881f7800008fbe00220798005f
:101e54003307980018c0b3002e019000be01900013
:101e64001e0078009e009000defa07000000e000eb
:101e7400010035000044eb000804e00003003200d8
:101e84001e0078009e009000020037002e00900093
:101e9400be0090004f0478000080fa0000000600a5
:101ea4000c00fa00881f7800008fbe0022079800fb
:101eb40033079800440798005507980018c0b300ea
:101ec4004e019000de0190001e0078009e009000fc
:101ed400c6fa07000000e00001003c000044eb00eb
:101ee4000804e000040032004e019000de0190007e
:101ef400028fbe000e00370018c0b3002e01900000
:101f0400be0190001e0078009e009000b5fa070004
:101f14000000e000010035000044eb000804e0008c
:101f2400030032002e019000be019000028fbe001b
:101f34001e0078009e0090004f0478000080fa0094
:101f4400000006000400fa00008fbe00b2fd20006d
:101f5400930424001e0078009e0090005ffa07009e
:101f6400020020004333240033fb07000080fa0002
:101f7400000006000400fa00008fbe00b2fd20003d
:101f8400930424001e0078009e0090002afb0700a2
:101f9400020020004333240050fa07000080fa00b6
:101fa400000006000000fa0021e3a9002143a80074
:101fb40001198000f0cf2f00008060000019880014
:101fc4002043a90001198000000e200001007000c8
:101fd4000019880011198000f0ff210000806000c2
:101fe400101988002343a80011198000f0cf2f0096
:101ff40000806000101988001119800030f82f004b
:10200400008060000030a000101988002203a9009d
:102014002223a90025e3a900f0c0b30024e3b700fc
:1020240021198000f00f2e008080600000f0200055
:1020340001007000201988003303a9002e0ea800a7
:102044002f6ea8006f2ea80030c3a8003163a8002b
:102054002e03a8004119800000fc2f0000806000be
:102064004019880028e3a90001a8a90021a8a80014
:1020740021e3a8000080fa00000006000000fa0036
:102084002023a8000080fa00000006000000fa00e7
:10209400200021000080fa00000006000000fa0081
:1020a4000ad0bf000080fa00000006000000fa0019
:1020b4000a70ef000080fa00000006000000fa0039
:1020c400f0032000303a8800213a8000f0f32f001a
:1020d40000806000203a8800213a800000fe2f0032
:1020e400008060000000a000203a88001200200058
:1020f40080072000a1092000337420008049780063
:102104008149780082497800103a80000001780003
:102114000200a00060042000710520002374200048
:1021240080497800814978008249780000000000e5
:10213400113a800000002700808060000000210028
:10214400808f5000faff3a0000000000113a80002e
:1021540000022000008060000000e000fbff32006d
:082164000080fa0000000600f3
:020000040000fa
:10216c001a10000004000000820000000000a00013
:10217c00400000002210000026000000800000003b
:10218c000c10000008000000800000001e10000071
:10219c00040000008200000000002000410000004c
:1021ac001410000006000000800000000010000069
:0c21bc000c00000080000000000000008b
:020000040000fa
:1021c8000000fa000e2eef001e2eef002e2eef005c
:1021d8003e2eef004e2eef005e2eef006e2eef002b
:1021e800214ea90060cea90060eea90011cea90079
:1021f80011eea90020cea90020eea9000080fa0067
:0422080000000600cc
:020000040000fa
:02000004000af0
:04afe000cfff00009f
:020000040000fa
:02000004000af0
:04afe400ffff00006b
:020000040000fa
:02000004000af0
:04afe8007fff0000e7
:020000040000fa
:02000004000af0
:04afec005fff000003
:020000040000fa
:02000004000af0
:04aff00038ff000026
:020000040000fa
:02000004000af0
:04aff400ffff00005b
:00000001FF
